:020000040800F2
:1000000090070020F1010008C70B0008AF0B0008A3
:10001000C50B0008F90A0008991400080000000048
:100020000000000000000000000000007D0D00083E
:100030000D0B000800000000410C00080310000830
:100040000B0200080B0200080B0200080B0200085C
:100050000B0200080B0200080B0200080B0200084C
:100060000B0200080B0200080B0200080B0200083C
:100070000B0200080B0200080B0200080B0200082C
:100080000B0200080B0200080B0200080B0200081C
:100090000B0200080B0200080B0200080B0200080C
:1000A0000B0200080B0200080B0200080B020008FC
:1000B000451000080B0200080B0200080B020008A4
:1000C0000B0200080B0200080B0200080B020008DC
:1000D0000B0200080B0200080B020008F9120008CE
:1000E0000B0200080B0200080B0200080B020008BC
:1000F0000B0200080B0200080B0200080B020008AC
:100100000B0200080B0200080B0200080B0200089B
:100110000B0200080B0200080B0200080B0200088B
:100120000B0200080B0200080B0200080B0200087B
:1001300000F002F800F04CF80AA090E8000C8244AD
:100140008344AAF10107DA4501D100F041F8AFF28A
:10015000090EBAE80F0013F0010F18BFFB1A43F0A5
:1001600001031847181C0000381C0000103A24BF77
:1001700078C878C1FAD8520724BF30C830C144BF0C
:1001800004680C607047000000230024002500264E
:10019000103A28BF78C1FBD8520728BF30C148BFEA
:1001A0000B607047642900F0E180002070471FB5A4
:1001B0009DE8030000F0ACF900F07CFB0400002097
:1001C000002101F0C5FD401C60601FBD10B510BDD1
:1001D00000F04AFB1146FFF7EAFF01F079FA00F060
:1001E0007BFB03B4FFF7F2FF03BC00F0A9FB0000A8
:1001F0000948804709480047FEE7FEE7FEE7FEE7BB
:10020000FEE7FEE7FEE7FEE7FEE7FEE704480549F6
:10021000054A064B70470000051000083101000830
:100220009001002090070020900300209003002000
:1002300070B5064600F04CF9056806F10B0020F099
:100240000704B4429CBF002070BD2B466A68BAB157
:100250001068A04210D304F1080188423CBF5068E6
:10026000586007D35168101941601168091B01607B
:1002700058601460101D70BD13465268002AE7D103
:100280002146284600F030F90028DED170BD70B557
:100290000446051F00F01CF90068002C14BF4468D8
:1002A00070BD002C18BFAC423CBF20466468F8D338
:1002B00001680A18AA4218BF456003D12A6805469A
:1002C0001144016028684119A1421CBF6C6070BDD7
:1002D0006168696021680844286070BD0FB41CB56E
:1002E000074B06AA7B4469460090059800F0A5F9E3
:1002F0000020694600F0B4F91CBC5DF814FB000056
:10030000790300002DE9F0410E46044600202062EA
:100310002046E168884730B3252805D0D4E901217B
:100320009047206A401CF2E7E16820460027884792
:10033000050018D0A5F14100192802D820354FF446
:1003400000673246294620462760FFF72BFF40B161
:10035000012804D0F61D26F007060836D8E7361D1A
:10036000D6E72846DAE7206ABDE8F0812DE9F041BA
:100370000646002410687529314616A510D0AFF343
:100380000080002802DA404213A507E031688A079E
:1003900001D512A502E0490704D511A5012401E009
:1003A000AFF3008000210A2206F1240709E0B0FB28
:1003B000F2FCB0FBF2F302FB1C003030785418461C
:1003C000491C0028F3D123462A463046BDE8F041B7
:1003D00000F0D4B8000000002D0000002B00000049
:1003E0002000000070B5064600F076F80468054667
:1003F00030460A22002100F038F92C6070BD401E02
:10040000CAB210F8011F8A4202D00029F9D1002097
:10041000704730B505460B462A4613F8014B12F8D3
:10042000010B08B1A042F8D01CB1002802D06D1C0D
:10043000F1E7284630BD10B5431C02E010F8011B5F
:1004400071B18107FAD14FF0013202C88C1A8C4386
:1004500014EAC211F9D0C01A0A0603D0C01E10BD9A
:10046000C01A10BD0A0401D0801E10BD0902FCD0C4
:10047000401E10BD10B5044610F0030F08BF11F068
:10048000030F40F015804FF0013E121FC0F20E80A6
:1004900051F8043BA3EB0E0C2CEA030C1CEACE1C17
:1004A00008BF40F8043BF0D0A1F1040102F10402BE
:1004B000521E08DB11F8013B002B00F8013BF7D17D
:1004C000114600F00AF9204610BD7047704770478A
:1004D0000048704738010020004870473001002074
:1004E000704770477047704738B504460A46002089
:1004F0006946AFF30080002808BF38BD0246009966
:10050000204600F019F9012038BD012000F07DB926
:10051000F8B5AFF30080054600200C46102000BF60
:100520000646A819A0420DD9324669460020AFF30D
:100530000080070008BF00F068F90098A04218BFCB
:100540000546C419FFF7C4FF05600746F01D20F0FB
:1005500007004619284600F00AF8B44208BFF8BD63
:10056000A21B31463868BDE8F84000F0E5B800212C
:100570000160C0E901107047102070472DE9F04775
:100580000D4699469246044600F124080168880603
:1005900004D5E06921F01001216000E00120A842AB
:1005A00001DD471B00E00027A1697A1902EB090071
:1005B000081AA0612078C00602D42046AFF300805C
:1005C000002608E0D4E901211AF806009047206AC5
:1005D000401C761C20624E45F4DB2078C0060AD50C
:1005E0002046AFF3008006E0D4E901213020904797
:1005F000206A401C2062381EA7F10107F4DC07E0E6
:10060000D4E9012118F805009047206A401C2062B7
:10061000281EA5F10105F3DC2046AFF30080207809
:10062000000602D50220BDE8F0870120FBE70000AC
:1006300001694A1C02610878704700B58FB0CDE9A6
:1006400001310021059105497944CDE90310114696
:100650006846FFF757FE0FB000BD0000E5FFFFFF43
:100660000A6802F8010B0A6070472DE9F0479146CD
:100670000F4680460446002614F8015B2DB100F0B9
:1006800053F80068405DC007F6D12B2D02D02D2D08
:1006900018D0641E4A463946204600F067F827B154
:1006A0003968A14201D1C7F800804FF002047105FA
:1006B0000BD54042002803DDFFF70EFF0460A007C2
:1006C000BDE8F08746F48066E4E70028F8DAFFF733
:1006D00003FF04606FF00040F2E74FF000020429CE
:1006E000C0F0128010F0030C00F09880CCF1040CE4
:1006F000BCF1020F18BF00F8012BA8BF20F8022B95
:10070000A1EB0C0100F08AB85FEAC17C24BF00F8BD
:10071000012B00F8012B48BF00F8012B70470000A7
:10072000004870473001002010B500F0C3F8001DEC
:1007300010BD00BF1D160000034640688C4600280F
:1007400018BF88423CBF03464068F8D31868184475
:10075000884207D00CF1030020F00700001D411A69
:10076000521A0146081D0A60FFF791BD2DE9F05F9E
:10077000824615468B4600270AF10104B9460078E7
:10078000302801D09DB113E014F8010B012778281F
:1007900003D0582801D045B10AE00DB1102D07D182
:1007A000002714F8010B102502E0082500E00A25B7
:1007B0000026B0460EE005FB080005FB06F1012708
:1007C0001FFA80F801EB1046B6F5803F00D3B9461A
:1007D00014F8010B294600F071F80028EBDABBF1A0
:1007E000000F05D00FB1641E00E05446CBF8004066
:1007F000B9F1000F06D0FFF76FFE02210160C81E9D
:10080000BDE8F09F48EA0640FAE710B500F070F83E
:10081000BDE8104000F066B84FF0000200B5134686
:1008200094469646203922BFA0E80C50A0E80C5010
:10083000B1F12001BFF4F7AF090728BFA0E80C50C1
:1008400048BF0CC05DF804EB890028BF40F8042BBA
:1008500008BF704748BF20F8022B11F0804F18BF27
:1008600000F8012B704770477546FFF759FFAE46F9
:1008700005006946534620F00700854618B020B5AC
:10088000FFF7C4FCBDE820404FF000064FF0000722
:100890004FF000084FF0000B21F00701AC46ACE828
:1008A000C009ACE8C009ACE8C009ACE8C0098D4695
:1008B0007047000000487047500100203A2800D2DD
:1008C000303820F02002412A01D3A2F137008842BB
:1008D00001D34FF0FF3070470446AFF3008020464D
:1008E000FFF77FFC002801D000F02AB87047000015
:1008F00010B5012805D0002103A000F027F8012041
:1009000010BD09A1F8E7000053494752544D454D29
:100910003A204F7574206F662068656170206D65A0
:100920006D6F7279000000003A2048656170206D9B
:10093000656D6F727920636F727275707465640093
:1009400001491820ABBEFEE72600020070B505463F
:100950000C460A2000E06D1C00F052F835B12878F2
:100960000028F8D102E0641C00F04AF814B12078A5
:100970000028F8D1BDE870400A2000F041B800001E
:100980004FF0013C50F8042B51F8043B9A4221D11E
:10099000A2EB0C03934313EACC1317D150F8042BAA
:1009A00051F8043B9A4215D1A2EB0C03934313EA8E
:1009B000CC130BD150F8042B51F8043B9A4209D1C7
:1009C000A2EB0C03934313EACC13DBD04FF00000EF
:1009D000704700BFD01A01BAB1FA81F101F01801D5
:1009E00022FA01F0CB40C1F12001DBB2C0B2C01A43
:1009F0002CFA01F3D11A914311EAC311E6D17047E1
:100A000008B569468DF800000320ABBE08BD0000A4
:100A10002DE9F047284E98B0052442F2107A4FF4A1
:100A2000FA79356825A000F01DF94FF47A78574619
:100A300005E000F013FE0446404600F09BFD3068E0
:100A4000401BB84202D2022CF3D12EE0022C2CD053
:100A50001EA000F007F901F05BF96946022001F0E1
:100A600055F901280AD001F053F9484600F082FDFB
:100A70001AA000F0F7F800F0F3FFD2E7684600F0A4
:100A8000F1F8356841F28837C84605E000F0E6FD28
:100A90000446404600F06EFD3068401BB84202D26A
:100AA000022CF3D101E0022CBBD118B00FA0BDE89D
:100AB000F04700F0D7B800000C000020737461729A
:100AC00074206175746F206C696E6B007374617251
:100AD0007420736D6172746C696E6B006C696E6BFF
:100AE000204150206661696C000000006C696E6BEB
:100AF000204150204F4B0000FEE70000024800213B
:100B00000170417081707047100000207047F0B58F
:100B1000CC78002204F00F03E40601D58C7823433F
:100B20000C784FF00F0C14F0FF0F4FF0010E1BD09C
:100B300005680E880EFA02F42640A64210D19600EF
:100B40000CFA06F725EA070703FA06F5CE783D43C7
:100B5000282E02D0482E02D002E0446100E0046159
:100B6000521C082AE5D305600A88FF2A1CD944686C
:100B7000002202F108060EFA06F50E882E40AE425B
:100B80000ED196000CFA06F7BC4303FA06F7CE78AE
:100B90003C43282E00D14561CE78482E00D1056116
:100BA000521C082AE5D34460F0BD0161704700BFC4
:100BB00000BFFCE70249CA684240CA6070470000B3
:100BC00000200140FEE7704730B50F23C27801785E
:100BD0000125F2B1144A126801F1E02102F4E06249
:100BE000C2F5E062120AC2F10404D3404278A24086
:100BF00084781C401443220181F80024007800F01E
:100C00001F018D404009800000F1E020C0F8005134
:100C100030BD01F01F0085404809800000F1E02050
:100C2000C0F8805130BD00000CED00E002490843DF
:100C300002490860704700000000FA050CED00E072
:100C40007047000010B5064C0146204600F01AFC23
:100C50004021204600F07DFB0028F9D010BD0000A7
:100C60000048004070B50446124D0AE081B22846A3
:100C7000641C00F007FC4021284600F06AFB0028B5
:100C8000F9D094F900000028F0D10D21284600F099
:100C9000F9FB4021284600F05CFB0028F9D00A212E
:100CA000284600F0EFFB4021284600F052FB0028C8
:100CB000F9D070BD00380140044A0029D16901D043
:100CC000014300E08143D161704700000010024001
:100CD000044A0029916901D0014300E081439161F8
:100CE000704700000010024030B5204A5168204B88
:100CF00011F00C0103D0042901D0082901D00360B0
:100D000012E05168536801F470114FF0020413F4BB
:100D1000803F04EB914102D053689B0301D5154BF2
:100D200000E0134B5943016051680F2303EA11118E
:100D3000114B5C5C0168E14041605468072505EA9D
:100D400014241C5D21FA04F48460546805EAD42458
:100D50001B5DD940C1605268032303EA9232064BFF
:100D60001B1F9A5CB1FBF2F1016130BD0010024023
:100D700000127A0000093D002000002070470000AA
:100D8000054801784078081A6021603090FBF1F244
:100D900001FB120070470000100000200D4B10B541
:100DA0001A786021521CB2FBF1F401FB14225C782A
:100DB000A2420AD0084A1C7810551878401CB0FB93
:100DC000F1F201FB1200187001E00120987001207F
:100DD00010BD000010000020D00000207CB50F4E98
:100DE000012908D000290FD16D4602680CA12846C0
:100DF000FFF774FA0DE0044603E0B168C0B2641C6A
:100E0000884720780028F8D17CBDB168C0B26D1C3D
:100E1000884728780028F8D17CBD00001000002009
:100E20002564000010B5FFF7D9FF044C0D20A16820
:100E30008847A168BDE810400A200847100000203C
:100E40000A4B10B558781978884202D14FF0FF301C
:100E500010BD07485978405C59786022491CB1FBA5
:100E6000F2F402FB1411597010BD000010000020B4
:100E7000D00000200149C0B2896808471000002056
:100E800008B50090FFF73AFE012108A0FFF7A6FF82
:100E900000216846FFF7A2FF012107A0FFF7C2FF6C
:100EA0006421084800F0B4FC08BD000041542B55F3
:100EB0004152543D000000002C382C312C302C3095
:100EC00000000000C81A00080CB500222648009255
:100ED0000192016841F4803101604FF4A063016820
:100EE00001F4003101910099491C0091019911B957
:100EF00000999942F3D10168890333D50121019109
:100F00001A490A6842F010020A600A6822F00302D5
:100F10000A600A6842F002020A6041684160416862
:100F20004160416841F480614160416821F47C1175
:100F30004160416841F4E8114160016841F080710D
:100F4000016001688901FCD5416821F0030141601D
:100F5000416841F0020141604168C1F38101022909
:100F6000FAD10CBD01920CBD0010024000200240DD
:100F700070B50D460446FFF75EFA25542044002163
:100F8000417070BD10B50446FFF743FA08B1001B6D
:100F900010BD4FF0FF3010BD2DE9F04115460F4652
:100FA0000446FFF748FA4FF0FF36A84207D360190E
:100FB0003946FFF724FA10B1001BBDE8F081304636
:100FC000FBE7FFF738BA2DE9F0411D46144680468D
:100FD0000E464FF0FF37AA4204DC0846FFF72BFA13
:100FE000A84202D23846BDE8F0812D1B6A1C311997
:100FF0004046FFF73FFA05EB080000214170012051
:10100000F1E770470C48016841F001010160416857
:101010000A4A114041600168094A114001600168B3
:1010200021F480210160416821F4FE0141604FF408
:101030001F018160FFF748BF001002400000FFF869
:10104000FFFFF6FE10B501218C07204600F053F893
:10105000002809D00121204600F040F800F070FE81
:1010600002480168491C016010BD00000400002016
:101070007FB501210846FFF71FFE40F2E730ADF8CB
:1010800004004720ADF8000000244FF08045ADF883
:101090000640ADF802406946284600F041F80121BB
:1010A000284600F01BF801221146284600F02FF8D0
:1010B0000121284600F015F84FF4E060FFF7B6FD77
:1010C0001C208DF80C008DF80D4001208DF80E00CD
:1010D0008DF80F0003A8FFF777FD7FBDC94301829C
:1010E00070470029018802D041F0010101E021F0A0
:1010F00001010180704702460020138A92890B4249
:1011000002EA010202D0002A00D001207047002A22
:10111000828901D00A4300E08A438281704700003F
:1011200030B502881B4C1C4DA0420DD0A8420BD0FC
:10113000B0F1804F08D0194B984205D0184B984217
:1011400002D0184B984203D122F070034A881A4308
:10115000154B984206D0154B984203D022F44073A9
:10116000CA881A4302808A8882850A880285A0423A
:101170000AD0A84208D00E4A904205D00D4A9042AB
:1011800002D00D4A904201D1097A01860121818263
:1011900030BD0000002C014000340140000400403C
:1011A00000080040000C0040001000400014004007
:1011B00000400140004401400048014030B5044671
:1011C00085B0012144F20400FFF782FD4FF4007165
:1011D000ADF8101002218DF812101820164D8DF860
:1011E000130004A92846FFF792FC04218DF8131080
:1011F0000802ADF8100004A92846FFF788FC00207B
:10120000ADF804000094ADF80600ADF80800ADF8A4
:101210000C000C20094CADF80A006946204600F08D
:10122000D7F80121204600F08AF84021204600F03E
:101230007DF805B030BD00000008014000380140D5
:1012400070B50446012186B08804FFF735FD012101
:101250000820FFF73DFD4FF48060ADF81000022537
:101260008DF812501820224E8DF8130004A9304634
:10127000FFF74DFC04218DF813104802ADF8100063
:1012800004A93046FFF743FC00940024ADF8084061
:101290000C20184EADF80440ADF80A00ADF8064039
:1012A000ADF80C406946304600F092F8012240F259
:1012B0002551304600F073F80121304600F03FF828
:1012C0004021304600F032F84FF4E060FFF7AEFC0A
:1012D00027208DF814008DF815408DF81650012048
:1012E0008DF8170005A8FFF76FFC06B070BD000071
:1012F000000C01400048004070B50B4C40F22555F1
:101300002946204600F02CF800280BD0294620461C
:1013100000F00FF8204600F0B1F8BDE87040C0B210
:10132000FFF73CBD70BD000000480040C94301808C
:1013300070470A0A01219140C94301807047002982
:10134000818902D041F4005101E021F400518181F2
:1013500070470246002012880A4200D001207047E0
:1013600070B501F01F0501260024C1F3421306FAEF
:1013700005F2012B0FD0022B0FD0838A4FEA1121E7
:101380000088134206FA01F600EA060001D000B117
:101390000124204670BD8389F0E7038AEEE710B58B
:1013A000C1F3421301F01F040121A140012B07D01A
:1013B000022B07D01430002A026805D00A4304E04B
:1013C0000C30F8E71030F6E78A43026010BD0000E9
:1013D00030B50446008A85B00D464CF6FF710840D2
:1013E000E98801432182A0894EF6F3110840A988BB
:1013F0002A8911436A8902431143A181A08A4FF6C9
:10140000FF410840A9890143A1826846FFF76CFCAF
:101410001948844201D1039800E00298A189090487
:1014200000EBC00101EB0010296801D5490000E084
:101430008900B0FBF1F06422B0FBF2F109010B0965
:101440006FF018056B4300EB8300A3891D044FF078
:10145000320306D503EBC000B0FBF2F000F007004A
:1014600005E003EB0010B0FBF2F000F00F000843C2
:10147000208105B030BD0000003801408088C0F3F5
:1014800008007047C1F3080181807047014BC3E930
:101490000112084710000020FEE7000038B50121C6
:1014A0000802FFF715FC4FF40044ADF8004010208F
:1014B0008DF803000320064D8DF80200694628468A
:1014C000FFF725FB21462846FFF76FFB38BD0000DC
:1014D0000020014070B505460C4617A0FFF7C2FB7F
:1014E00000F0BEFA0028FBD000F0D8FB0028FBD0AB
:1014F000FFF78EFA00F048F80028FBD04FF4FA66A8
:101500002146284600F02EF860B10DA0FFF7AAFB97
:101510004FF47A7000F02EF800F0A0F8032808D0FD
:10152000002070BD0AA0FFF79DFB304600F022F8B6
:10153000E6E7012070BD00005265737461727400AB
:1015400063726561746520746370206F6B0D0A00AF
:1015500063726561746520746370206572720D0A30
:10156000000000000A46014601A000F0B3BA0000E6
:101570005443500003490A680B689B1A8342FBD905
:10158000704700000C00002038B500200090FFF7E5
:10159000B5FA01210CA0FFF721FC00216846FFF7F6
:1015A00041FC0C480024642304700BA20E4900F097
:1015B0002DFA0D490748FFF7E5FC401C01D001203A
:1015C00038BD204638BD000041542B4349504D558D
:1015D000583D0000700000204C696E6B206973203C
:1015E0006275696C64656400C81A00081CB50C4615
:1015F0000190FFF783FA01210DA0FFF7EFFB002117
:1016000001A8FFF70FFC64210E4800F001F9002843
:101610000DD03220FFF7AEFFFFF770FA47F23050DF
:1016200000902346084A09A1064800F005F91CBDB0
:1016300041542B4357534D41525453544152543DFE
:1016400000000000C81A0008B8160008534D4152A7
:1016500054205355434345535300000038B51020E0
:10166000FEF7E6FD0446FFF749FA01210EA0FFF759
:10167000D9FB6420009023460FA211A1114800F06D
:10168000DBF811A12046FFF77DFC411C07D0C01DEF
:1016900025562046FEF7FBFDA5F1300038BD20465B
:1016A000FEF7F5FD002038BD41542B4349505354FB
:1016B00041545553000000000D0A0D0A4F4B000025
:1016C0000D0D0A00C81A00085354415455533A00EE
:1016D000FFF7E4FE4FF41650FFF770FD32A0FFF75E
:1016E000C1FAFFF7C5FC344C4FF4FA784FF4E139F6
:1016F0004FF49645002641F6907730A0FFF7B2FAF6
:101700004046FFF737FF304A30494846FFF7BEFEF4
:101710002846FFF7B5FB2C4A2C492846FFF7B6FEB2
:101720002846FFF7ADFB0028E7D03D46294628A014
:10173000FFF7D0FE0028F9D0FFF722FB05280ADDCD
:1017400064224021264800F05BF8011E03DD244896
:10175000266000F071FA60680528EDD366602068A5
:10176000401C2060A068401CA060642804D34FF493
:101770000040A660FFF71EFA2068B0F5167FDBD3A5
:101780002660FFF76BFF032809D016A0FFF76AFA5F
:1017900029460FA0FFF79EFE0028F9D0CCE714A041
:1017A000FFF760FAC8E7000073797374656D206213
:1017B0006567696E00000000000000206368616ECC
:1017C0006720626175640000450C00084112000842
:1017D0003139322E3136382E33312E313336000046
:1017E0003000002054435020756E6C696E6B000011
:1017F000544350206C696E6B207469636B00000069
:1018000038B5002413462246009400F049F838BD4C
:1018100010B5084B0A4600211970044601461846C7
:1018200000F0D2F821460348FFF7ACFB401C00D083
:10183000012010BD700000202DE9F047174F14461D
:10184000884605460026089A014699463E70384665
:1018500000F0BAF829463846FFF794FB401C19D02F
:1018600041463846FFF78EFB054621463846FFF7CE
:1018700089FB0446681C0DD0601C0BD04046FFF766
:10188000A0FB4219631E39464846FFF79CFB012026
:10189000BDE8F0873E700020FAE7000070000020ED
:1018A0002DE9FF4F4FF0000683B0434900965FEAF1
:1018B00000093546B0460E707CD04049D1F800A0F2
:1018C0008B463FE0FFF75CFA002805DDFFF7B8FA2A
:1018D00041B23948FFF74CFB39A13748FFF752FBBB
:1018E0000446401C2ED0621D3A213348FFF754FBBA
:1018F0000746401C26D0621D2C212F48FFF74CFBC9
:101900000646401C1BD0BE4219DA3346621D2A49E6
:101910006846FFF758FB6846FEF764FD4FFA80F80B
:10192000B8F1050F46D23B46721C23496846FFF7C3
:101930004AFB6846FEF756FD051E3BDD0BE03B46C5
:10194000621DF2E7DBF800100698A1EB0A01814264
:10195000B8D3009828B304980024854201D90746DB
:1019600000E02F46DBF800A01CE0FFF769FA09F859
:101970000400641CFFF704FA002801DDBC42F4D324
:10198000BC420FD1FFF7BAF8059800B1056026B147
:10199000109810B1109981F80080384607B0BDE862
:1019A000F08F07E0DBF8001040F6B830A1EB0A0139
:1019B0008142DFD30020F1E7700000200C000020FE
:1019C0002B4950442C0000002DE9F0410E4E1546E5
:1019D0000F468046346810E0FFF732FA41B211B189
:1019E0004046FFF7C5FAFFF7CBF90028F4DC39468B
:1019F0004046FFF7C7FA401C03D13068001BA842DD
:101A0000F1D30120BDE8F0810C0000202DE9F04762
:101A1000124E1D46174688468146346816E0FFF789
:101A20000FFA41B211B14846FFF7A2FAFFF7A8F941
:101A30000028F4DC41464846FFF7A4FA401C09D1CF
:101A400039464846FFF79EFA401C03D13068001B18
:101A5000A842EBD30120BDE8F08700000C00002075
:101A600070B5FFF74BF8012115A0FFF7DBF96421F2
:101A700015A0FFF7CDFE00B34FF4FA60FFF77AFD33
:101A8000124D2C6840F6B83613E0FFF737F8012105
:101A90000FA0FFF7C7F964210BA0FFF7B9FE28B12B
:101AA00040F2DC50FFF766FD012070BD6420FFF7B7
:101AB00061FD2868001BB042E7D3002070BD000024
:101AC00041542B52535400004F4B00000C00002097
:101AD000415400002DE9F84F0D462D4904460020E1
:101AE00000920870FFF70AF801212AA0FFF776F9A3
:101AF00001212046FFF772F901212AA0FFF76EF9B4
:101B000001212846FFF76AF9012127A0FFF766F9AE
:101B100000216846FFF786F9DFF874A00FF28C0900
:101B20000FF28C08284E24A742F2107534681CE08E
:101B3000FFF786F941B211B15046FFF719FAFFF7E6
:101B40001FF90028F4DC49465046FFF71BFA401CF9
:101B50000FD141465046FFF715FA401C09D13946CE
:101B60005046FFF70FFA401C03D13068001BA84213
:101B7000E5D30EA10648FFF705FA401C05D10EA1DA
:101B80000348FFF7FFF9401C00D00120BDE8F88FA3
:101B90007000002041542B43495053544152543D4E
:101BA00022000000222C2200222C00004F4B0000BB
:101BB0004552524F52000000414C52454144592079
:101BC000434F4E4E454354000C00002008B51249C7
:101BD000009000200870FEF791FF01210FA0FFF791
:101BE000FDF800216846FFF71DF964230EA2114994
:101BF0000948FFF70BFF0F490748FFF7C3F9401CDF
:101C000005D109A10448FFF7BDF9401C01D000200F
:101C100008BD012008BD00007000002041542B4386
:101C2000574D4F44453D00006E6F206368616E67FD
:101C300065000000C81A0008F8B50D460646009178
:101C4000FEF75CFF01210FA0FFF7C8F800216846EE
:101C5000FFF7E8F841F288310DA0FFF7D9FD401CED
:101C60000FD0FEF74BFF002404E03057FFF702F9D6
:101C7000641CE4B2AC42F8D342F2107105A0FFF745
:101C8000C7FDF8BD41542B43495053454E443D00D8
:101C90003E00000053454E44204F4B001FB5FF202F
:101CA0008DF80C00FEF72AFF012110A0FFF7BAF80B
:101CB0006420009001AB104A10A11348FFF7BCFD4F
:101CC00000280FD001A8FEF78DFBC0B28DF80C00E4
:101CD000032806D00320FFF779FF28B1FFF7C0FEE5
:101CE00010B1012004B010BD0020FBE741542B438C
:101CF000574D4F44453F0000B81600082B43574D41
:101D00004F44453A00000000C81A0008FFF76EBCB7
:101D100010B5FEF7F3FE012104A0FFF783F8BDE83C
:101D2000104064210548FFF773BD000041542B4368
:101D300057534D41525453544F500000C81A000895
:101D400002480168491C0160704700000C00002037
:101D500010B500290AD00878002807D00548784433
:101D6000FEF70EFE002801D0002010BD0248784486
:101D700010BD00003E00000036000000AC1E000850
:101D800000000020300000006C010008DC1E00088C
:101D900030000020600700008801000810010000EA
:101DA00043000000F8FFFFFF00404040404040403B
:101DB000404041414141414040404040404040401E
:101DC00040404040404040404005020202020202C2
:101DD0000202020202020202022020202020202011
:101DE0002020200202020202020290909090909025
:101DF00010101010101010101010101010101010E3
:101E00001010101002020202020288888888888856
:101E10000808080808080808080808080808080842
:101E2000080808080202020240000000000000004A
:101E300000000000000000000000000000000000A2
:101E40000000000000000000000000000000000092
:101E50000000000000000000000000000000000082
:101E60000000000000000000000000000000000072
:101E70000000000000000000000000000000000062
:101E80000000000000000000000000000000000052
:101E90000000000000000000000000000000000042
:101EA0000000000000000000000000000000000032
:101EB0000000000000000000000000000000000022
:101EC00000000000000000000204060800000000FE
:0C1ED000010203040102030406070809D4
:0400000508000131BD
:00000001FF
